:0400000007EF00F016
:0A00080001828FED04F04DEF05F0CA
:100600000052504D003C2D002D3E00494E005350ED
:0506100000475200004C
:100616001A50D96EDA6A4C0EDE18D8A415EF03F01C
:1006260017EF03F046EF03F0050E176E1750D8A428
:10063600060E186ECB0E196E29EC04F0055007E174
:10064600020E045CD8B02AEF03F02CEF03F032EF71
:1006560003F081808182819C819E46EF03F00550E4
:1006660007E1040E045CD8B03BEF03F03DEF03F066
:1006760043EF03F081908192819C819E46EF03F0C7
:10068600056A000E046E1A50D96EDA6A4F0EDE182D
:10069600D8A450EF03F052EF03F060EF03F0070E1B
:1006A600176E1750D8A4060E186ECB0E196E29ECCD
:1006B60004F081908192819C819E1A50D96EDA6AEB
:1006C600520EDE18D8A46AEF03F06CEF03F09BEF2E
:1006D60003F0080E176E1750D8A4060E186ECB0E30
:1006E600196E29EC04F0055007E1020E045CD8B03F
:1006F6007FEF03F081EF03F087EF03F081908192A3
:10070600818C818E9BEF03F0055007E1040E045C9B
:10071600D8B090EF03F092EF03F098EF03F08190DA
:100726008192819C819E9BEF03F0056A000E046E08
:100736001200120E1D6E080E1E6E140E1F6EE5ECD4
:1007460003F0100E12181310D8A4ACEF03F0AEEF9E
:1007560003F0B4EF03F0080E1A6E14C01BF023EC7E
:1007660005F0200E12181310D8A4BCEF03F0BEEF4C
:1007760003F0C4EF03F0080E1A6E14C01BF03FEC32
:1007860005F0300E12181310D8A4CCEF03F0CEEFFC
:1007960003F0D4EF03F0080E1A6E14C01BF031EC10
:1007A60005F0500E12181310D8A4DCEF03F0DEEF9C
:1007B60003F0E4EF03F0080E1A6E14C01BF00BEC06
:1007C60003F0120060AEEAEF03F0ECEF03F028EF5F
:1007D60004F0CFEC04F01D50D96EDA6A15C0DEFFC6
:1007E60016C0DDFF1F50D96EDA6A65CFDFFF660ED1
:1007F600236E0F0E246E266A000E256E11EF04F08E
:1008060025502324D96E26502420DA6E1E50252426
:10081600E16EE26ADFCFE7FF254A262A1F50D96E2E
:10082600DA6ADF50206E216A2050255C2650800A45
:10083600226E2150800A2258D8A024EF04F026EF19
:1008460004F003EF04F0609EA4901200000E156EF3
:100856001950ECEC04F046EF04F0010E156E17C0CB
:10086600F6FF18C0F7FFF86A050EF76403D0080014
:10087600F55005D0F6CFE9FFF7CFEAFFEF50ECECE5
:1008860004F0174A182A17C0F6FF18C0F7FFF86ACF
:10089600050EF76403D00800F55005D0F6CFE9FF42
:1008A600F7CFEAFFEF500009D8A45CEF04F05EEF43
:1008B60004F030EF04F012005AEC05F00E0E176E3D
:1008C6001750D8A4060E186E800E196E29EC04F087
:1008D600110E176E1750D8A4060E186E830E196ED9
:1008E60029EC04F0010E176E1750D8A4060E186EE8
:1008F600860E196E29EC04F00B0E176E1750D8A44D
:10090600060E186E8B0E196E29EC04F09CEC03F0A3
:1009160061EF04F007EF00F00600F2A495EF04F093
:1009260097EF04F0AFEF04F0080ED626000ED7229C
:10093600F294024A032A210E021807E14E0E03180A
:10094600D8A4A8EF04F0AAEF04F0AFEF04F0036A0E
:10095600000E026E044A052A0192110093949386B2
:100966001F0E6F166F8E800E6E18D8A4BDEF04F0A2
:10097600BFEF04F0B6EF04F0776AE10E706E1B0E5F
:10098600716E030E726E0D01D46B1F0E6F166F50D3
:10099600606A608A608C12006150176E186AD8907F
:1009A60017361836D89017361836D89017361836A0
:1009B6006238E842070B070B196E1A6A17501910AE
:1009C6001B6E18501A101C6E1BC015F01CC016F0BA
:1009D6001200166E15B0F2EF04F0F5EF04F0828205
:1009E600F6EF04F0829216C083FF82848294958E7D
:1009F600828082928284829483BE04EF05F006EFA1
:100A060005F0FDEF04F08290959E1200956A9450D1
:100A1600F80B946E8290000E156E020EECEC04F04C
:100A2600000E156E380EECEC04F0000E156E0C0E72
:100A3600ECEC04F0000E156E010EECEC04F0120066
:100A46001A50D96EDA6A020ED926DF6A1AC017F072
:100A5600186AC00E196E29EC04F012001A50D96EED
:100A6600DA6A040ED926DF6A1AC017F0186AC60EAB
:100A7600196E29EC04F012001A50D96EDA6A020EC9
:100A8600D926DF6A1AC017F0186AC30E196E29EC48
:100A960004F0120000EE02F0130EEE6AE806FDE125
:100AA60001900192000EF86E00015FEF04F009EC70
:100AB60005F06FEC05F0F28CF28E65EC05F0B1EC0A
:100AC60004F01200D58CD59AD58ED586D76A060E37
:100AD600D66EF294F28A1200080E936E816A1200A4
:020000040020DA
:08000000FFFFFFFFFFFFFFFF00
:020000040030CA
:0E000000FF071F1FFF8285FF0FC00FE00F409C
:00000001FF
