:04000000FEEF17F008
:1006000000002B50800B346E2B502B243A6E2AAEF8
:100610000CEF03F00EEF03F00FEF03F03A803A50C7
:10062000D8B415EF03F017EF03F02AEF03F03A28E0
:10063000D8A41DEF03F01FEF03F027EF03F0000E27
:10064000286E000E296E000E2A6E000E2B6E2A8E6A
:1006500032EF03F0000E286E000E296E000E2A6E97
:10066000000E2B6E2F50800B341A2F502F24396E12
:100670002EAE3DEF03F03FEF03F040EF03F0398083
:100680003950D8B446EF03F048EF03F05BEF03F0C6
:100690003928D8A44EEF03F050EF03F058EF03F0E1
:1006A000000E2C6E000E2D6E000E2E6E000E2F6EA4
:1006B0002E8E63EF03F0000E2C6E000E2D6E000EDA
:1006C0002E6E000E2F6E3950D8B469EF03F06BEF29
:1006D00003F073EF03F03A50D8A471EF03F073EF17
:1006E00003F07DEF03F0000E286E000E296E000E61
:1006F0002A6E000E2B6E13EF05F02E502802F3CF5A
:100700003FF0F4CF40F03F50356E366A376A386AB2
:1007100040503B6E3C6A3D6A3E6A2D502902F3CF41
:100720003FF0F4CF40F03F503526000E36223722FE
:10073000382240503B26000E3C223D223E222C50C7
:100740002A02F3CF3FF0F4CF40F03F503526000EA1
:1007500036223722382240503B26000E3C223D22D2
:100760003E2237C038F036C037F035C036F0356A33
:100770002C502902F3CF3FF0F4CF40F03F50352604
:1007800040503622000E3722000E38222D5028020B
:10079000F3CF3FF0F4CF40F03F50352640503622A3
:1007A000000E3722000E382237C038F036C037F03E
:1007B00035C036F0356A2C502802F3CF3FF0F4CF25
:1007C00040F03F50352640503622000E3722000EB2
:1007D00038222E502902F3CF3FF0F4CF40F03F50A3
:1007E0003B2640503C22000E3D22000E3E222D5062
:1007F0002A02F3CF3FF0F4CF40F03F503B26405069
:100800003C22000E3D22000E3E222E502A02F3CF43
:100810003FF0F4CF40F03F50306E4050316E326ABE
:10082000336A32C033F031C032F030C031F0306A58
:1008300030503B2631503C2232503D2233503E2234
:1008400035C030F036C031F037C032F038C033F048
:10085000190E30EF04F0D890333232323132303268
:10086000E82E2BEF04F030503B2631503C22325022
:100870003D2233503E2237C038F036C037F035C005
:1008800036F0356A39503AC030F0316A3026000E01
:100890003122820E30243F6EFF0E3120406E66EF13
:1008A00004F0D8903B363C363D363E3638AE5BEFF2
:1008B00004F05DEF04F05EEF04F03B80D890353635
:1008C0003636373638363F06D8A040063DAE6BEF99
:1008D00004F06DEF04F051EF04F0396A38AE73EFB5
:1008E00004F075EF04F099EF04F0FF0E3514306E4C
:1008F000FF0E3614316EFF0E3714326E7F0E381431
:10090000336E3050311032103310D8B48AEF04F007
:100910008CEF04F090EF04F0010E396E99EF04F0C3
:100920003BA095EF04F097EF04F099EF04F08CEF03
:1009300004F03950D8B49FEF04F0A1EF04F0C5EFF4
:1009400004F0010E3B26000E3C223D223E223EA03A
:10095000ACEF04F0AEEF04F0C5EF04F03BC030F0B4
:100960003CC031F03DC032F03EC033F0333433325E
:1009700032323132303230C03BF031C03CF032C024
:100980003DF033C03EF03F4A402A40BED0EF04F075
:10099000405008E13F28D8A0D0EF04F0D2EF04F097
:1009A000DCEF04F0000E3B6E000E3C6E800E3D6EE0
:1009B0007F0E3E6E09EF05F040BEE9EF04F04050B7
:1009C00006E13F04D8B0E7EF04F0E9EF04F0F4EFFC
:1009D00004F0000E3B6E000E3C6E000E3D6E000EED
:1009E0003E6E346A09EF05F03FC03AF0FF0E3B1649
:1009F000FF0E3C167F0E3D16000E3E163AA003EF8A
:100A000005F005EF05F006EF05F03D8ED8903A3081
:100A10003E6E34503E123BC028F03CC029F03DC031
:100A20002AF03EC02BF012001250800B1F6E1250A5
:100A30001224266E11AE1FEF05F021EF05F022EF14
:100A400005F026802650D8B428EF05F02AEF05F0EF
:100A50003EEF05F02628D8A430EF05F032EF05F080
:100A60003AEF05F0000E0F6E000E106E000E116EC4
:100A7000000E126E118E126A46EF05F0000E0F6E18
:100A8000000E106E000E116E000E126E1650800BCE
:100A90001F1A16501624276E15AE51EF05F053EFAE
:100AA00005F054EF05F027802750D8B45AEF05F031
:100AB0005CEF05F070EF05F02728D8A462EF05F091
:100AC00064EF05F06CEF05F0000E136E000E146E6F
:100AD000000E156E000E166E158E166A78EF05F074
:100AE000000E136E000E146E000E156E000E166EC4
:100AF0001350141015101610D8A481EF05F083EFD1
:100B000005F09BEF05F0000E0F6E000E106E000E4C
:100B1000116E000E126E800E11127F0E12121F50F7
:100B200012120FC00FF010C010F011C011F012C05F
:100B300012F0DAEF06F02650D8A4A1EF05F0A3EFEB
:100B400005F0ADEF05F0000E0F6E000E106E000EFA
:100B5000116E000E126EDAEF06F0275026C017F065
:100B6000186A175E000E185A7F0E1724206E000EAA
:100B70001820216E0FC01BF010C01CF011C01DF01A
:100B800012C01EF0000E0F6E000E106E000E116EE1
:100B9000000E126E000E226E000E236E000E246EEA
:100BA000000E256E276A0DEF06F02750D8B4DBEF54
:100BB00005F0DDEF05F0F4EF05F0D8901B361C369C
:100BC0001D361E36D8900F3610361136123625AE29
:100BD000ECEF05F0EEEF05F0EFEF05F00F80D890A9
:100BE000223623362436253613501B5C14501C58ED
:100BF00015501D5816501E58D8A001EF06F003EFEF
:100C000006F00CEF06F0258C13501B5E14501C5A96
:100C100015501D5A16501E5A272A190E276413EF15
:100C200006F015EF06F0D5EF05F01B501C101D1057
:100C30001E10D8B41EEF06F020EF06F038EF06F0D5
:100C4000228038EF06F0D8900F3610361136123663
:100C500025AE2DEF06F02FEF06F030EF06F00F80F7
:100C6000D89022362336243625362006D8A02106F1
:100C700011AE3DEF06F03FEF06F023EF06F0276AD6
:100C800025AE45EF06F047EF06F06BEF06F0FF0EDE
:100C90002214176EFF0E2314186EFF0E2414196E03
:100CA0007F0E25141A6E1750181019101A10D8B488
:100CB0005CEF06F05EEF06F062EF06F0010E276EC5
:100CC0006BEF06F00FA067EF06F069EF06F06BEF31
:100CD00006F05EEF06F02750D8B471EF06F073EF20
:100CE00006F097EF06F0010E0F26000E10221122DB
:100CF000122212A07EEF06F080EF06F097EF06F0CA
:100D00000FC017F010C018F011C019F012C01AF07F
:100D10001A341A3219321832173217C00FF018C0AD
:100D200010F019C011F01AC012F0204A212A21BE79
:100D3000A2EF06F0215008E12028D8A0A2EF06F08B
:100D4000A4EF06F0AFEF06F0000E216E2068000E53
:100D50000F6E000E106E000E116E000E126E21BE90
:100D6000BCEF06F0215006E12004D8B0BAEF06F03F
:100D7000BCEF06F0C8EF06F0216A000E206E000EF0
:100D80000F6E000E106E000E116E000E126E1F6AB6
:100D900020C026F026A0CFEF06F0D1EF06F0D4EF6A
:100DA00006F0118ED5EF06F0119ED8902630126E07
:100DB0008FEF05F01200096E0950D8B4E2EF06F08B
:100DC000E4EF06F006EF07F004BEEBEF06F0E9EF04
:100DD00006F006EF07F001C005F002C006F003C000
:100DE00007F004C008F0051E061E071E081E052A8F
:100DF000000E06220722082205C00BF006C00CF0E8
:100E000007C00DF008C00EF00EEF07F001C00BF0A8
:100E100002C00CF003C00DF004C00EF0015002102F
:100E200003100410D8A417EF07F019EF07F023EF11
:100E300007F0000E016E000E026E000E036E000E33
:100E4000046EB4EF07F0960E0A6E2DEF07F00A2A33
:100E5000D8900E320D320C320B32000E0B14056E90
:100E6000000E0C14066E000E0D14076EFE0E0E140E
:100E7000086E0550061007100810D8A442EF07F0BE
:100E800044EF07F027EF07F052EF07F00A2A010EB0
:100E90000B26000E0C220D220E22D8900E320D329F
:100EA0000C320B32000E0B14056E000E0C14066E85
:100EB000000E0D14076EFF0E0E14086E055006107E
:100EC00007100810D8A467EF07F069EF07F046EFA6
:100ED00007F071EF07F00A06D8900B360C360D3686
:100EE0000E360DBE76EF07F078EF07F080EF07F0D3
:100EF000020E0A607EEF07F080EF07F06BEF07F05D
:100F00000AB085EF07F087EF07F088EF07F00D9E36
:100F1000D8900A320AC005F0066A076A086A05C056
:100F200008F0076A066A056A05500B1206500C1293
:100F300007500D1208500E120950D8B4A2EF07F056
:100F4000A4EF07F0ACEF07F004BEABEF07F0A9EF9A
:100F500007F0ACEF07F00E8E0BC001F00CC002F0F2
:100F60000DC003F00EC004F01200040E71EC0AF084
:100F700001C057F002C058F0000E2C6E000E2D6E0E
:100F8000700E2E6E420E2F6E140E136EAE0E146E79
:100F9000230E156E410E166E57C001F058C002F0B8
:100FA000036A046A000EDBEC06F001C00FF002C019
:100FB00010F003C011F004C012F014EC05F00FC0E3
:100FC00028F010C029F011C02AF012C02BF001EC5B
:100FD00003F028C041F029C042F02AC043F02BC0E2
:100FE00044F055EC08F041C055F042C056F055C0F1
:100FF00001F056C002F0030E046EE80E036EA4EC7E
:1010000009F00150300F0001706F046A640E036E26
:1010100055C001F056C002F0A4EC09F001C008F080
:1010200002C009F00B6A0A0E0A6E14EC0AF00850AE
:10103000300F0001716F046A0A0E036E55C001F093
:1010400056C002F0A4EC09F001C008F002C009F09B
:101050000B6A0A0E0A6E14EC0AF00850300F0001F9
:10106000726F55C008F056C009F00B6A0A0E0A6E7E
:1010700014EC0AF00850300F0001736F746B066AAD
:10108000300E056E700E076E050E086EDDEC09F071
:10109000030E4C6E080E4B6E770EE82EFED74B2ECD
:1010A000FCD74C2EFAD700001200433444344A6E69
:1010B0004A50D8A45EEF08F060EF08F06AEF08F03D
:1010C000000E416E000E426E000E436E000E446E26
:1010D000D7EF08F041C045F042C046F043C047F0AA
:1010E00044C048F0200E7AEF08F0D89048324732DA
:1010F00046324532E82E75EF08F04550496E438E72
:10110000FF0E4116FF0E4216FF0E4316000E441648
:10111000960E4A5E4ABE91EF08F08FEF08F0A7EFF7
:1011200008F04A50800A970FD8B099EF08F09BEF6B
:1011300008F09DEF08F060EF08F0D8904432433299
:10114000423241324A3E9DEF08F0BFEF08F01F0ED9
:101150004A64ADEF08F0AFEF08F0B7EF08F060EFCA
:1011600008F0D89041364236433644364A064A5053
:10117000D8A4BDEF08F0BFEF08F0B1EF08F0495078
:10118000D8B4C5EF08F0C7EF08F0CFEF08F0441E61
:10119000431E421E416C000E42224322442241C0A3
:1011A00041F042C042F043C043F044C044F012005A
:1011B000956A9450F80B946E8290C30E036ECD0E18
:1011C000E82EFED7032EFCD70000000E016E330E72
:1011D000D0EC0AF01B0E036E9E0EE82EFED7032EF7
:1011E000FCD700D0000E016E330ED0EC0AF0A60E34
:1011F000E82EFED700D0000E016E330ED0EC0AF0C0
:1012000000D000D00000000E016E020ED0EC0AF0FB
:10121000A60EE82EFED700D0000E016E380ED0ECE0
:101220000AF0A60EE82EFED700D0000E016E010EC9
:10123000D0EC0AF0040E036E3E0EE82EFED7032E0D
:10124000FCD7000E016E0C0ED0EC0AF0A60EE82EB4
:10125000FED700D01200010E6AEC09F05B6E0E0E94
:101260005B18D8A436EF09F038EF09F03CEF09F02D
:101270004C0E5D6E54EF09F00B0E5B18D8A443EFD3
:1012800009F045EF09F049EF09F0520E5D6E54EF99
:1012900009F00D0E5B18D8A450EF09F052EF09F0D9
:1012A00054EF09F04F0E5D6E066A500E056E5D0E2E
:1012B000076E010E086EDDEC09F0030E116E080ECC
:1012C000106E770EE82EFED7102EFCD7112EFAD70F
:1012D00000001200016E0104D8A471EF09F073EF51
:1012E00009F098EF09F082500F0B0F0AD8B47BEF8A
:1012F00009F07DEF09F08AEF09F05F50D8B483EF71
:1013000009F085EF09F08AEF09F05F6A82500F0B50
:10131000A3EF09F082500F0B0F0AD8A492EF09F047
:1013200094EF09F0A2EF09F0010E5F6EA2EF09F051
:101330000150D8A49EEF09F0A0EF09F0A2EF09F048
:1013400086EF09F0FF0E1200066A000E056E0350CC
:101350000410D8B4AEEF09F0B0EF09F0D8EF09F0FF
:10136000010E076EB8EF09F0D89003360436072A4D
:1013700004AEBDEF09F0BFEF09F0B4EF09F0D8906B
:10138000053606360350015C04500258D8A0CBEF56
:1013900009F0CDEF09F0D2EF09F00350015E0450DF
:1013A000025A0580D89004320332072EBFEF09F0AD
:1013B00005C001F006C002F012000F01436B446B40
:1013C00005C001F006C002F0B2EC0AF008C045FF0B
:1013D000460E0C6E0F0E0D6E0F6A000E0E6EFFEFB6
:1013E00009F007500E24D96EDA6A0E500C24E16E13
:1013F0000F500D20E26EDFCFE7FF0E4A0F2A085094
:10140000096E0A6A09500E5C0F50800A0B6E0A5072
:10141000800A0B58D8A00FEF0AF011EF0AF0F1EF95
:1014200009F00F01408712000A500B10D8B41BEFCF
:101430000AF01DEF0AF041EF0AF0010E0C6E25EFE5
:101440000AF0D8900A360B360C2A0BAE2AEF0AF0B7
:101450002CEF0AF021EF0AF00A50085C0B500958F3
:10146000D8A035EF0AF037EF0AF03BEF0AF00A5048
:10147000085E0B50095AD8900B320A320C2E2CEF12
:101480000AF008C008F009C009F012003A0EF66E22
:10149000160EF76E000EF86E00EE75F010EE0AF004
:1014A0000900F5CFEEFFE550E150FAE14C0EF66E83
:1014B000160EF76E000EF86E0900F5CF5EF009000B
:1014C000F5CF5FF000EE60F0150EEE6AE806FDE184
:1014D00000EE4DF0110EEE6AE806FDE10001EDEFC1
:1014E0000AF0076E07C003F0D8900336D890033691
:1014F000C250C30B0310C26EC282C2B282EF0AF0A6
:1015000084EF0AF07DEF0AF0C350C4CF03F0046A01
:1015100003C004F0036A0310056E0450066E05C094
:1015200001F006C002F01200939493861F0E6F160E
:101530006F8E800E6E18D8A4A0EF0AF0A2EF0AF00A
:1015400099EF0AF0776AE10E706E1B0E716E030E52
:10155000726E0D01D46B1F0E6F166F50606A608A39
:10156000608C120001C003F0070E0316050E046E16
:10157000D8900336042EB8EF0AF003500F01426FE3
:1015800001C003F002C004F0D89004320332D890B6
:1015900004320332D890043203320350416F1200F8
:1015A000026E01B0D6EF0AF0D9EF0AF08282DAEFCC
:1015B0000AF0829202C083FF82848294958E828098
:1015C00082928284829483BEE8EF0AF0EAEF0AF006
:1015D000E1EF0AF08290959E120007EC0BF0D8EC38
:1015E00008F093909392939C939E81908192819C1A
:1015F000819E22EC0BF015EC0BF094EC0AF0B5ECAC
:1016000007F02BEC09F0FFEF0AF0FEEF17F0C08EA9
:10161000C09AC088C096C090C082C094C292C19A3D
:10162000C198C46AC36AC2801200956A9250F00BD6
:10163000926E8050F00B806E1200E721CB6B2D6E06
:0E164000EE23EF6F94500F09946E120001011B
:042FFC0046EF0AF0A2
:020000040020DA
:08000000FFFFFFFFFFFFFFFF00
:020000040030CA
:0E000000FF071F1FFF8285FF0FC00FE00F409C
:00000001FF
