:04000000FEEF17F008
:1006000000001250800B1F6E12501224266E11AE85
:100610000CEF03F00EEF03F00FEF03F026802650EF
:10062000D8B415EF03F017EF03F02BEF03F02628F3
:10063000D8A41DEF03F01FEF03F027EF03F0000E27
:100640000F6E000E106E000E116E000E126E118EE7
:10065000126A33EF03F0000E0F6E000E106E000EE4
:10066000116E000E126E1650800B1F1A16501624B3
:10067000276E15AE3EEF03F040EF03F041EF03F0BD
:1006800027802750D8B447EF03F049EF03F05DEF20
:1006900003F02728D8A44FEF03F051EF03F059EFF0
:1006A00003F0000E136E000E146E000E156E000E99
:1006B000166E158E166A65EF03F0000E136E000EAF
:1006C000146E000E156E000E166E135014101510D9
:1006D0001610D8A46EEF03F070EF03F088EF03F06C
:1006E000000E0F6E000E106E000E116E000E126ED8
:1006F000800E11127F0E12121F5012120FC00FF037
:1007000010C010F011C011F012C012F0C7EF04F0C9
:100710002650D8A48EEF03F090EF03F09AEF03F089
:10072000000E0F6E000E106E000E116E000E126E97
:10073000C7EF04F0275026C017F0186A175E000EA6
:10074000185A7F0E1724206E000E1820216E0FC03D
:100750001BF010C01CF011C01DF012C01EF0000EE6
:100760000F6E000E106E000E116E000E126E000E57
:10077000226E000E236E000E246E000E256E276A78
:10078000FAEF03F02750D8B4C8EF03F0CAEF03F034
:10079000E1EF03F0D8901B361C361D361E36D8907C
:1007A0000F3610361136123625AED9EF03F0DBEFD7
:1007B00003F0DCEF03F00F80D89022362336243686
:1007C000253613501B5C14501C5815501D581650DC
:1007D0001E58D8A0EEEF03F0F0EF03F0F9EF03F0AE
:1007E000258C13501B5E14501C5A15501D5A165060
:1007F0001E5A272A190E276400EF04F002EF04F0B6
:10080000C2EF03F01B501C101D101E10D8B40BEFCC
:1008100004F00DEF04F025EF04F0228025EF04F042
:10082000D8900F3610361136123625AE1AEF04F076
:100830001CEF04F01DEF04F00F80D8902236233611
:10084000243625362006D8A0210611AE2AEF04F062
:100850002CEF04F010EF04F0276A25AE32EF04F01D
:1008600034EF04F058EF04F0FF0E2214176EFF0E61
:100870002314186EFF0E2414196E7F0E25141A6EA1
:100880001750181019101A10D8B449EF04F04BEF94
:1008900004F04FEF04F0010E276E58EF04F00FA0A4
:1008A00054EF04F056EF04F058EF04F04BEF04F06F
:1008B0002750D8B45EEF04F060EF04F084EF04F04A
:1008C000010E0F26000E10221122122212A06BEF31
:1008D00004F06DEF04F084EF04F00FC017F010C0C7
:1008E00018F011C019F012C01AF01A341A32193265
:1008F0001832173217C00FF018C010F019C011F0DD
:100900001AC012F0204A212A21BE8FEF04F0215094
:1009100008E12028D8A08FEF04F091EF04F09CEFBD
:1009200004F0000E216E2068000E0F6E000E106E97
:10093000000E116E000E126E21BEA9EF04F02150C0
:1009400006E12004D8B0A7EF04F0A9EF04F0B5EF5A
:1009500004F0216A000E206E000E0F6E000E106E65
:10096000000E116E000E126E1F6A20C026F026A027
:10097000BCEF04F0BEEF04F0C1EF04F0118EC2EF43
:1009800004F0119ED8902630126E7CEF03F0120016
:10099000096E0950D8B4CFEF04F0D1EF04F0F3EFB3
:1009A00004F004BED8EF04F0D6EF04F0F3EF04F047
:1009B00001C005F002C006F003C007F004C008F053
:1009C000051E061E071E081E052A000E0622072207
:1009D000082205C00BF006C00CF007C00DF008C0DF
:1009E0000EF0FBEF04F001C00BF002C00CF003C0EE
:1009F0000DF004C00EF00150021003100410D8A432
:100A000004EF05F006EF05F010EF05F0000E016EA3
:100A1000000E026E000E036E000E046EA1EF05F0D4
:100A2000960E0A6E1AEF05F00A2AD8900E320D3291
:100A30000C320B32000E0B14056E000E0C14066EF9
:100A4000000E0D14076EFE0E0E14086E05500610F3
:100A500007100810D8A42FEF05F031EF05F014EFC0
:100A600005F03FEF05F00A2A010E0B26000E0C22BE
:100A70000D220E22D8900E320D320C320B32000EA7
:100A80000B14056E000E0C14066E000E0D14076E8E
:100A9000FF0E0E14086E0550061007100810D8A49B
:100AA00054EF05F056EF05F033EF05F05EEF05F07B
:100AB0000A06D8900B360C360D360E360DBE63EF97
:100AC00005F065EF05F06DEF05F0020E0A606BEFC3
:100AD00005F06DEF05F058EF05F00AB072EF05F084
:100AE00074EF05F075EF05F00D9ED8900A320AC03C
:100AF00005F0066A076A086A05C008F0076A066A10
:100B0000056A05500B1206500C1207500D120850C2
:100B10000E120950D8B48FEF05F091EF05F099EF60
:100B200005F004BE98EF05F096EF05F099EF05F09B
:100B30000E8E0BC001F00CC002F00DC003F00EC011
:100B400004F01200819A818C818E81B2AAEF05F0A7
:100B5000ACEF05F0AFEF05F0010E25EF06F081B424
:100B6000B4EF05F0B6EF05F0B9EF05F0040E25EF90
:100B700006F081B6BEEF05F0C0EF05F0C3EF05F05B
:100B8000070E25EF06F081B8C8EF05F0CAEF05F0B3
:100B9000CDEF05F00A0E25EF06F0818A819C818E4B
:100BA00081B2D5EF05F0D7EF05F0DAEF05F0020ED0
:100BB00025EF06F081B4DFEF05F0E1EF05F0E4EF9B
:100BC00005F0050E25EF06F081B6E9EF05F0EBEF35
:100BD00005F0EEEF05F0080E25EF06F081B8F3EF13
:100BE00005F0F5EF05F0F8EF05F00B0E25EF06F038
:100BF000818A818C819E819E81B201EF06F003EF94
:100C000006F006EF06F0030E25EF06F081B40BEFB9
:100C100006F00DEF06F010EF06F0060E25EF06F0D9
:100C200081B615EF06F017EF06F01AEF06F0090E81
:100C300025EF06F081B81FEF06F021EF06F024EF54
:100C400006F00C0E25EF06F0FF0E12002A342B34AE
:100C5000316E3150D8A42FEF06F031EF06F03BEFA4
:100C600006F0000E286E000E296E000E2A6E000E91
:100C70002B6EA8EF06F028C02CF029C02DF02AC05A
:100C80002EF02BC02FF0200E4BEF06F0D8902F3215
:100C90002E322D322C32E82E46EF06F02C50306EDC
:100CA0002A8EFF0E2816FF0E2916FF0E2A16000E9A
:100CB0002B16960E315E31BE62EF06F060EF06F045
:100CC00078EF06F03150800A970FD8B06AEF06F03F
:100CD0006CEF06F06EEF06F031EF06F0D8902B3295
:100CE0002A3229322832313E6EEF06F090EF06F0BC
:100CF0001F0E31647EEF06F080EF06F088EF06F0FD
:100D000031EF06F0D890283629362A362B363106B0
:100D10003150D8A48EEF06F090EF06F082EF06F087
:100D20003050D8B496EF06F098EF06F0A0EF06F03A
:100D30002B1E2A1E291E286C000E29222A222B2255
:100D400028C028F029C029F02AC02AF02BC02BF097
:100D50001200040E6BEC08F001C042F002C043F038
:100D6000140E136EAE0E146E230E156E410E166E1B
:100D700042C001F043C002F0036A046A000EC8ECEE
:100D800004F001C00FF002C010F003C011F004C065
:100D900012F001EC03F00FC028F010C029F011C0D0
:100DA0002AF012C02BF026EC06F028C040F029C033
:100DB00041F040C001F041C002F0046A0A0E036E27
:100DC000A0EC07F00150300F486E40C001F041C068
:100DD00002F0046A0A0E036E10EC08F00150300FA6
:100DE000496E4A6A066A100E056E480E076E020EBC
:100DF000086ED9EC07F0030E336E080E326E770ED4
:100E0000E82EFED7322EFCD7332EFAD70000120080
:100E1000010E66EC07F0476E4704D8A412EF07F006
:100E200014EF07F026EF07F03FBE22EF07F03F5028
:100E300007E1070E3E5CD8B020EF07F022EF07F085
:100E40004DEF07F03E4A3F2A4DEF07F0020E4718DC
:100E5000D8A42DEF07F02FEF07F041EF07F03FBECA
:100E60003AEF07F03F5008E13E04D8A03AEF07F010
:100E70003CEF07F04DEF07F03E06D8A03F064DEFE0
:100E800007F0030E4718D8A448EF07F04AEF07F021
:100E90004DEF07F03F6A080E3E6E066A200E056EA3
:100EA0003E50030DF350600F076E020E086ED9EC32
:100EB00007F0030E116E080E106E770EE82EFED7A7
:100EC000102EFCD7112EFAD700001200016E01047B
:100ED000D8A46DEF07F06FEF07F092EF07F0A2ECE8
:100EE00005F0446E4428D8B478EF07F07AEF07F0A5
:100EF00086EF07F05650D8B480EF07F082EF07F086
:100F000086EF07F0566A44509FEF07F04428D8A4B4
:100F10008CEF07F08EEF07F09EEF07F0010E566E94
:100F20009EEF07F00150D8A498EF07F09AEF07F072
:100F30009EEF07F0A2EC05F09FEF07F0FF0E120006
:100F4000066A000E056E03500410D8B4AAEF07F02D
:100F5000ACEF07F0D4EF07F0010E076EB4EF07F027
:100F6000D89003360436072A04AEB9EF07F0BBEF7A
:100F700007F0B0EF07F0D890053606360350015C55
:100F800004500258D8A0C7EF07F0C9EF07F0CEEF22
:100F900007F00350015E0450025A0580D8900432D5
:100FA0000332072EBBEF07F005C001F006C002F0C8
:100FB00012000F01436B446B05C001F006C002F044
:100FC000ACEC08F008C045FF460E0C6E0F0E0D6E1F
:100FD0000F6A000E0E6EFBEF07F007500E24D96E5D
:100FE000DA6A0E500C24E16E0F500D20E26EDFCF56
:100FF000E7FF0E4A0F2A0850096E0A6A09500E5C74
:101000000F50800A0B6E0A50800A0B58D8A00BEFC5
:1010100008F00DEF08F0EDEF07F00F014087120028
:1010200003500410D8B417EF08F019EF08F03DEFA3
:1010300008F0010E056E21EF08F0D8900336043653
:10104000052A04AE26EF08F028EF08F01DEF08F09F
:101050000350015C04500258D8A031EF08F033EF80
:1010600008F037EF08F00350015E0450025AD890A0
:1010700004320332052E28EF08F001C001F002C04F
:1010800002F01200CC0EF66E110EF76E000EF86E26
:1010900000EE60F010EE1BF00900F5CFEEFFE5501A
:1010A000E150FAE1FA0EF66E110EF76E000EF86ED0
:1010B00000EE4BF010EE0DF00900F5CFEEFFE5501D
:1010C000E150FAE100EE34F0170EEE6AE806FDE1B9
:1010D0000001CAEF08F0076E07C003F0D89003368E
:1010E000D8900336C250C30B0310C26EC282C2B284
:1010F0007CEF08F07EEF08F077EF08F0C350C4CF24
:1011000003F0046A03C004F0036A0310056E045080
:10111000066E05C001F006C002F01200939493869B
:101120001F0E6F166F8E800E6E18D8A49AEF08F0FF
:101130009CEF08F093EF08F0776AE10E706E1B0EDB
:10114000716E030E726E0D01D46B1F0E6F166F5011
:10115000606A608A608C120001C003F0070E0316FB
:10116000050E046ED8900336042EB2EF08F003503B
:101170000F01426F01C003F002C004F0D8900432A6
:101180000332D89004320332D89004320332035031
:10119000416F1200D8EC08F0F4EC08F08EEC08F087
:1011A000A9EC06F008EC07F0D0EF08F0FEEF17F01E
:1011B000C08EC09AC088C096C090C082C094C292AF
:1011C000C19AC198C46AC36AC28012004F4E004ED1
:1011D0004500473100473200473300473400473568
:0711E00000475200434C00E0
:1011E8000F0EC16E1E0E936EF19E8150E009816E46
:0F11F80012005370656564004765617200010164
:042FFC0042EF08F0A8
:020000040020DA
:08000000FFFFFFFFFFFFFFFF00
:020000040030CA
:0E000000FF071F1FFF8285FF0FC00FE00F409C
:00000001FF
